{
  "contractName": "Zephyr",
  "abi": [
    {
      "constant": false,
      "inputs": [
        {
          "name": "newAdmin",
          "type": "address"
        }
      ],
      "name": "changeAdmin",
      "outputs": [],
      "payable": false,
      "stateMutability": "nonpayable",
      "type": "function"
    },
    {
      "constant": true,
      "inputs": [],
      "name": "admin",
      "outputs": [
        {
          "name": "",
          "type": "address"
        }
      ],
      "payable": false,
      "stateMutability": "view",
      "type": "function"
    },
    {
      "anonymous": false,
      "inputs": [
        {
          "indexed": true,
          "name": "tokenAddress",
          "type": "address"
        },
        {
          "indexed": true,
          "name": "fromAddress",
          "type": "address"
        },
        {
          "indexed": false,
          "name": "amount",
          "type": "uint256"
        }
      ],
      "name": "Deposit",
      "type": "event"
    },
    {
      "anonymous": false,
      "inputs": [
        {
          "indexed": true,
          "name": "tokenAddress",
          "type": "address"
        },
        {
          "indexed": true,
          "name": "toAddress",
          "type": "address"
        },
        {
          "indexed": false,
          "name": "amount",
          "type": "uint256"
        }
      ],
      "name": "Withdraw",
      "type": "event"
    },
    {
      "anonymous": false,
      "inputs": [
        {
          "indexed": true,
          "name": "tokenAddress",
          "type": "address"
        },
        {
          "indexed": true,
          "name": "who",
          "type": "address"
        },
        {
          "indexed": false,
          "name": "amount",
          "type": "uint256"
        },
        {
          "indexed": false,
          "name": "priceInWei",
          "type": "uint256"
        },
        {
          "indexed": false,
          "name": "offerKey",
          "type": "uint256"
        }
      ],
      "name": "NewBuyLimitOrder",
      "type": "event"
    },
    {
      "anonymous": false,
      "inputs": [
        {
          "indexed": true,
          "name": "tokenAddress",
          "type": "address"
        },
        {
          "indexed": true,
          "name": "who",
          "type": "address"
        },
        {
          "indexed": false,
          "name": "amount",
          "type": "uint256"
        },
        {
          "indexed": false,
          "name": "priceInWei",
          "type": "uint256"
        },
        {
          "indexed": false,
          "name": "offerKey",
          "type": "uint256"
        }
      ],
      "name": "BuyLimitOrderCancel",
      "type": "event"
    },
    {
      "anonymous": false,
      "inputs": [
        {
          "indexed": true,
          "name": "tokenAddress",
          "type": "address"
        },
        {
          "indexed": false,
          "name": "amount",
          "type": "uint256"
        },
        {
          "indexed": false,
          "name": "priceInWei",
          "type": "uint256"
        },
        {
          "indexed": false,
          "name": "timestamp",
          "type": "uint256"
        },
        {
          "indexed": false,
          "name": "offerKey",
          "type": "uint256"
        }
      ],
      "name": "BuyLimitOrderFilled",
      "type": "event"
    },
    {
      "anonymous": false,
      "inputs": [
        {
          "indexed": true,
          "name": "tokenAddress",
          "type": "address"
        },
        {
          "indexed": true,
          "name": "who",
          "type": "address"
        },
        {
          "indexed": false,
          "name": "amount",
          "type": "uint256"
        },
        {
          "indexed": false,
          "name": "priceInWei",
          "type": "uint256"
        },
        {
          "indexed": false,
          "name": "offerKey",
          "type": "uint256"
        }
      ],
      "name": "NewSellLimitOrder",
      "type": "event"
    },
    {
      "anonymous": false,
      "inputs": [
        {
          "indexed": true,
          "name": "tokenAddress",
          "type": "address"
        },
        {
          "indexed": true,
          "name": "who",
          "type": "address"
        },
        {
          "indexed": false,
          "name": "amount",
          "type": "uint256"
        },
        {
          "indexed": false,
          "name": "priceInWei",
          "type": "uint256"
        },
        {
          "indexed": false,
          "name": "offerKey",
          "type": "uint256"
        }
      ],
      "name": "SellLimitOrderCancel",
      "type": "event"
    },
    {
      "anonymous": false,
      "inputs": [
        {
          "indexed": true,
          "name": "tokenAddress",
          "type": "address"
        },
        {
          "indexed": false,
          "name": "amount",
          "type": "uint256"
        },
        {
          "indexed": false,
          "name": "priceInWei",
          "type": "uint256"
        },
        {
          "indexed": false,
          "name": "timestamp",
          "type": "uint256"
        },
        {
          "indexed": false,
          "name": "offerKey",
          "type": "uint256"
        }
      ],
      "name": "SellLimitOrderFilled",
      "type": "event"
    },
    {
      "constant": false,
      "inputs": [
        {
          "name": "symbol",
          "type": "string"
        },
        {
          "name": "contractAddress",
          "type": "address"
        }
      ],
      "name": "addToken",
      "outputs": [],
      "payable": false,
      "stateMutability": "nonpayable",
      "type": "function"
    },
    {
      "constant": true,
      "inputs": [
        {
          "name": "contractAddress",
          "type": "address"
        }
      ],
      "name": "hasToken",
      "outputs": [
        {
          "name": "",
          "type": "bool"
        }
      ],
      "payable": false,
      "stateMutability": "view",
      "type": "function"
    },
    {
      "constant": false,
      "inputs": [],
      "name": "depositEther",
      "outputs": [],
      "payable": true,
      "stateMutability": "payable",
      "type": "function"
    },
    {
      "constant": false,
      "inputs": [
        {
          "name": "amountInWei",
          "type": "uint256"
        }
      ],
      "name": "withdrawEther",
      "outputs": [],
      "payable": false,
      "stateMutability": "nonpayable",
      "type": "function"
    },
    {
      "constant": true,
      "inputs": [],
      "name": "getEtherBalanceInWei",
      "outputs": [
        {
          "name": "",
          "type": "uint256"
        }
      ],
      "payable": false,
      "stateMutability": "view",
      "type": "function"
    },
    {
      "constant": false,
      "inputs": [
        {
          "name": "contractAddress",
          "type": "address"
        },
        {
          "name": "amount",
          "type": "uint256"
        }
      ],
      "name": "depositToken",
      "outputs": [],
      "payable": false,
      "stateMutability": "nonpayable",
      "type": "function"
    },
    {
      "constant": false,
      "inputs": [
        {
          "name": "contractAddress",
          "type": "address"
        },
        {
          "name": "amount",
          "type": "uint256"
        }
      ],
      "name": "withdrawTokens",
      "outputs": [],
      "payable": false,
      "stateMutability": "nonpayable",
      "type": "function"
    },
    {
      "constant": true,
      "inputs": [
        {
          "name": "contractAddress",
          "type": "address"
        }
      ],
      "name": "getTokenBalance",
      "outputs": [
        {
          "name": "",
          "type": "uint256"
        }
      ],
      "payable": false,
      "stateMutability": "view",
      "type": "function"
    },
    {
      "constant": false,
      "inputs": [
        {
          "name": "contractAddress",
          "type": "address"
        },
        {
          "name": "amount",
          "type": "uint256"
        },
        {
          "name": "priceInWei",
          "type": "uint256"
        }
      ],
      "name": "buyToken",
      "outputs": [],
      "payable": false,
      "stateMutability": "nonpayable",
      "type": "function"
    },
    {
      "constant": false,
      "inputs": [
        {
          "name": "contractAddress",
          "type": "address"
        },
        {
          "name": "amount",
          "type": "uint256"
        },
        {
          "name": "priceInWei",
          "type": "uint256"
        }
      ],
      "name": "sellToken",
      "outputs": [],
      "payable": false,
      "stateMutability": "nonpayable",
      "type": "function"
    },
    {
      "constant": true,
      "inputs": [
        {
          "name": "contractAddress",
          "type": "address"
        }
      ],
      "name": "getBuyOrderBook",
      "outputs": [
        {
          "name": "",
          "type": "uint256[]"
        },
        {
          "name": "",
          "type": "uint256[]"
        }
      ],
      "payable": false,
      "stateMutability": "view",
      "type": "function"
    },
    {
      "constant": true,
      "inputs": [
        {
          "name": "contractAddress",
          "type": "address"
        }
      ],
      "name": "getSellOrderBook",
      "outputs": [
        {
          "name": "",
          "type": "uint256[]"
        },
        {
          "name": "",
          "type": "uint256[]"
        }
      ],
      "payable": false,
      "stateMutability": "view",
      "type": "function"
    },
    {
      "constant": false,
      "inputs": [
        {
          "name": "contractAddress",
          "type": "address"
        },
        {
          "name": "priceInWei",
          "type": "uint256"
        },
        {
          "name": "offerKey",
          "type": "uint256"
        }
      ],
      "name": "cancelBuyLimitOrder",
      "outputs": [],
      "payable": false,
      "stateMutability": "nonpayable",
      "type": "function"
    },
    {
      "constant": false,
      "inputs": [
        {
          "name": "contractAddress",
          "type": "address"
        },
        {
          "name": "priceInWei",
          "type": "uint256"
        },
        {
          "name": "offerKey",
          "type": "uint256"
        }
      ],
      "name": "cancelSellLimitOrder",
      "outputs": [],
      "payable": false,
      "stateMutability": "nonpayable",
      "type": "function"
    }
  ],
  "bytecode": "0x6080604052336000806101000a81548173ffffffffffffffffffffffffffffffffffffffff021916908373ffffffffffffffffffffffffffffffffffffffff160217905550614984806100536000396000f3006080604052600436106100e6576000357c0100000000000000000000000000000000000000000000000000000000900463ffffffff16806306b091f9146100eb578063338b5dea146101385780633aecd0e3146101855780633bed33ce146101dc5780633e11741f146102095780635320024e146102605780636a55a2f61461028b5780638447eee6146102e25780638f283970146103c257806398ea5fca146104055780639bb0f5991461040f578063aa34eab21461046a578063b0b22c2c146104c1578063dcb8e1061461054a578063e671499b1461062a578063f851a44014610681575b600080fd5b3480156100f757600080fd5b50610136600480360381019080803573ffffffffffffffffffffffffffffffffffffffff169060200190929190803590602001909291905050506106d8565b005b34801561014457600080fd5b50610183600480360381019080803573ffffffffffffffffffffffffffffffffffffffff16906020019092919080359060200190929190505050610aa9565b005b34801561019157600080fd5b506101c6600480360381019080803573ffffffffffffffffffffffffffffffffffffffff169060200190929190505050610e6b565b6040518082815260200191505060405180910390f35b3480156101e857600080fd5b5061020760048036038101908080359060200190929190505050610ef1565b005b34801561021557600080fd5b5061025e600480360381019080803573ffffffffffffffffffffffffffffffffffffffff16906020019092919080359060200190929190803590602001909291905050506110ca565b005b34801561026c57600080fd5b506102756114d6565b6040518082815260200191505060405180910390f35b34801561029757600080fd5b506102e0600480360381019080803573ffffffffffffffffffffffffffffffffffffffff169060200190929190803590602001909291908035906020019092919050505061151d565b005b3480156102ee57600080fd5b50610323600480360381019080803573ffffffffffffffffffffffffffffffffffffffff16906020019092919050505061179e565b604051808060200180602001838103835285818151815260200191508051906020019060200280838360005b8381101561036a57808201518184015260208101905061034f565b50505050905001838103825284818151815260200191508051906020019060200280838360005b838110156103ac578082015181840152602081019050610391565b5050505090500194505050505060405180910390f35b3480156103ce57600080fd5b50610403600480360381019080803573ffffffffffffffffffffffffffffffffffffffff169060200190929190505050611971565b005b61040d611a0f565b005b34801561041b57600080fd5b50610450600480360381019080803573ffffffffffffffffffffffffffffffffffffffff169060200190929190505050611b51565b604051808215151515815260200191505060405180910390f35b34801561047657600080fd5b506104bf600480360381019080803573ffffffffffffffffffffffffffffffffffffffff1690602001909291908035906020019092919080359060200190929190505050611c02565b005b3480156104cd57600080fd5b50610548600480360381019080803590602001908201803590602001908080601f0160208091040260200160405190810160405280939291908181526020018383808284378201915050505050509192919290803573ffffffffffffffffffffffffffffffffffffffff169060200190929190505050611f38565b005b34801561055657600080fd5b5061058b600480360381019080803573ffffffffffffffffffffffffffffffffffffffff169060200190929190505050612084565b604051808060200180602001838103835285818151815260200191508051906020019060200280838360005b838110156105d25780820151818401526020810190506105b7565b50505050905001838103825284818151815260200191508051906020019060200280838360005b838110156106145780820151818401526020810190506105f9565b5050505090500194505050505060405180910390f35b34801561063657600080fd5b5061067f600480360381019080803573ffffffffffffffffffffffffffffffffffffffff1690602001909291908035906020019092919080359060200190929190505050612256565b005b34801561068d57600080fd5b506106966124a2565b604051808273ffffffffffffffffffffffffffffffffffffffff1673ffffffffffffffffffffffffffffffffffffffff16815260200191505060405180910390f35b60008060006106e6856124c7565b925083600260003373ffffffffffffffffffffffffffffffffffffffff1673ffffffffffffffffffffffffffffffffffffffff16815260200190815260200160002060008773ffffffffffffffffffffffffffffffffffffffff1673ffffffffffffffffffffffffffffffffffffffff168152602001908152602001600020541015151561077357600080fd5b600260003373ffffffffffffffffffffffffffffffffffffffff1673ffffffffffffffffffffffffffffffffffffffff16815260200190815260200160002060008673ffffffffffffffffffffffffffffffffffffffff1673ffffffffffffffffffffffffffffffffffffffff1681526020019081526020016000205484600260003373ffffffffffffffffffffffffffffffffffffffff1673ffffffffffffffffffffffffffffffffffffffff16815260200190815260200160002060008873ffffffffffffffffffffffffffffffffffffffff1673ffffffffffffffffffffffffffffffffffffffff16815260200190815260200160002054031115151561087c57600080fd5b8260000160009054906101000a900473ffffffffffffffffffffffffffffffffffffffff1691508173ffffffffffffffffffffffffffffffffffffffff1663a9059cbb33866040518363ffffffff167c0100000000000000000000000000000000000000000000000000000000028152600401808373ffffffffffffffffffffffffffffffffffffffff1673ffffffffffffffffffffffffffffffffffffffff16815260200182815260200192505050602060405180830381600087803b15801561094657600080fd5b505af115801561095a573d6000803e3d6000fd5b505050506040513d602081101561097057600080fd5b8101908080519060200190929190505050905080151561098f57600080fd5b83600260003373ffffffffffffffffffffffffffffffffffffffff1673ffffffffffffffffffffffffffffffffffffffff16815260200190815260200160002060008773ffffffffffffffffffffffffffffffffffffffff1673ffffffffffffffffffffffffffffffffffffffff168152602001908152602001600020600082825403925050819055503373ffffffffffffffffffffffffffffffffffffffff168360000160009054906101000a900473ffffffffffffffffffffffffffffffffffffffff1673ffffffffffffffffffffffffffffffffffffffff167f9b1bfa7fa9ee420a16e124f794c35ac9f90472acc99140eb2f6447c714cad8eb866040518082815260200191505060405180910390a35050505050565b600080600073ffffffffffffffffffffffffffffffffffffffff16600160008673ffffffffffffffffffffffffffffffffffffffff1673ffffffffffffffffffffffffffffffffffffffff16815260200190815260200160002060000160009054906101000a900473ffffffffffffffffffffffffffffffffffffffff1673ffffffffffffffffffffffffffffffffffffffff1614151515610b4a57600080fd5b600260003373ffffffffffffffffffffffffffffffffffffffff1673ffffffffffffffffffffffffffffffffffffffff16815260200190815260200160002060008573ffffffffffffffffffffffffffffffffffffffff1673ffffffffffffffffffffffffffffffffffffffff1681526020019081526020016000205483600260003373ffffffffffffffffffffffffffffffffffffffff1673ffffffffffffffffffffffffffffffffffffffff16815260200190815260200160002060008773ffffffffffffffffffffffffffffffffffffffff1673ffffffffffffffffffffffffffffffffffffffff168152602001908152602001600020540110151515610c5357600080fd5b8391508173ffffffffffffffffffffffffffffffffffffffff166323b872dd3330866040518463ffffffff167c0100000000000000000000000000000000000000000000000000000000028152600401808473ffffffffffffffffffffffffffffffffffffffff1673ffffffffffffffffffffffffffffffffffffffff1681526020018373ffffffffffffffffffffffffffffffffffffffff1673ffffffffffffffffffffffffffffffffffffffff1681526020018281526020019350505050602060405180830381600087803b158015610d2d57600080fd5b505af1158015610d41573d6000803e3d6000fd5b505050506040513d6020811015610d5757600080fd5b81019080805190602001909291905050509050801515610d7657600080fd5b82600260003373ffffffffffffffffffffffffffffffffffffffff1673ffffffffffffffffffffffffffffffffffffffff16815260200190815260200160002060008673ffffffffffffffffffffffffffffffffffffffff1673ffffffffffffffffffffffffffffffffffffffff168152602001908152602001600020600082825401925050819055503373ffffffffffffffffffffffffffffffffffffffff163073ffffffffffffffffffffffffffffffffffffffff167f5548c837ab068cf56a2c2479df0882a4922fd203edb7517321831d95078c5f62856040518082815260200191505060405180910390a350505050565b6000600260003373ffffffffffffffffffffffffffffffffffffffff1673ffffffffffffffffffffffffffffffffffffffff16815260200190815260200160002060008373ffffffffffffffffffffffffffffffffffffffff1673ffffffffffffffffffffffffffffffffffffffff168152602001908152602001600020549050919050565b80600360003373ffffffffffffffffffffffffffffffffffffffff1673ffffffffffffffffffffffffffffffffffffffff1681526020019081526020016000205410151515610f3f57600080fd5b600360003373ffffffffffffffffffffffffffffffffffffffff1673ffffffffffffffffffffffffffffffffffffffff1681526020019081526020016000205481600360003373ffffffffffffffffffffffffffffffffffffffff1673ffffffffffffffffffffffffffffffffffffffff168152602001908152602001600020540311151515610fce57600080fd5b80600360003373ffffffffffffffffffffffffffffffffffffffff1673ffffffffffffffffffffffffffffffffffffffff168152602001908152602001600020600082825403925050819055503373ffffffffffffffffffffffffffffffffffffffff166108fc829081150290604051600060405180830381858888f19350505050158015611061573d6000803e3d6000fd5b503373ffffffffffffffffffffffffffffffffffffffff163073ffffffffffffffffffffffffffffffffffffffff167f9b1bfa7fa9ee420a16e124f794c35ac9f90472acc99140eb2f6447c714cad8eb836040518082815260200191505060405180910390a350565b60008060006110d8866124c7565b92506000836005015414806110f05750838360030154105b1561148657838502915084821015151561110957600080fd5b83821015151561111857600080fd5b84600260003373ffffffffffffffffffffffffffffffffffffffff1673ffffffffffffffffffffffffffffffffffffffff16815260200190815260200160002060008873ffffffffffffffffffffffffffffffffffffffff1673ffffffffffffffffffffffffffffffffffffffff16815260200190815260200160002054101515156111a357600080fd5b600260003373ffffffffffffffffffffffffffffffffffffffff1673ffffffffffffffffffffffffffffffffffffffff16815260200190815260200160002060008773ffffffffffffffffffffffffffffffffffffffff1673ffffffffffffffffffffffffffffffffffffffff1681526020019081526020016000205485600260003373ffffffffffffffffffffffffffffffffffffffff1673ffffffffffffffffffffffffffffffffffffffff16815260200190815260200160002060008973ffffffffffffffffffffffffffffffffffffffff1673ffffffffffffffffffffffffffffffffffffffff1681526020019081526020016000205403111515156112ac57600080fd5b600360003373ffffffffffffffffffffffffffffffffffffffff1673ffffffffffffffffffffffffffffffffffffffff1681526020019081526020016000205482600360003373ffffffffffffffffffffffffffffffffffffffff1673ffffffffffffffffffffffffffffffffffffffff168152602001908152602001600020540111151561133a57600080fd5b84600260003373ffffffffffffffffffffffffffffffffffffffff1673ffffffffffffffffffffffffffffffffffffffff16815260200190815260200160002060008873ffffffffffffffffffffffffffffffffffffffff1673ffffffffffffffffffffffffffffffffffffffff168152602001908152602001600020600082825403925050819055506113d083858733612574565b3373ffffffffffffffffffffffffffffffffffffffff168360000160009054906101000a900473ffffffffffffffffffffffffffffffffffffffff1673ffffffffffffffffffffffffffffffffffffffff167fa8b717360aba28f8d2d651a4b216b5574aeb2f955fcf2f13e4dab2a1b2bfd5c887878760060160008a81526020019081526020016000206004015460405180848152602001838152602001828152602001935050505060405180910390a36114ce565b6114928385873361291e565b905060008111156114cd576114cc8360000160009054906101000a900473ffffffffffffffffffffffffffffffffffffffff1682866110ca565b5b5b505050505050565b6000600360003373ffffffffffffffffffffffffffffffffffffffff1673ffffffffffffffffffffffffffffffffffffffff16815260200190815260200160002054905090565b600080600061152b866124c7565b92503373ffffffffffffffffffffffffffffffffffffffff16836002016000878152602001908152602001600020600201600086815260200190815260200160002060010160009054906101000a900473ffffffffffffffffffffffffffffffffffffffff1673ffffffffffffffffffffffffffffffffffffffff161415156115b357600080fd5b84836002016000878152602001908152602001600020600201600086815260200190815260200160002060000154029150600360003373ffffffffffffffffffffffffffffffffffffffff1673ffffffffffffffffffffffffffffffffffffffff1681526020019081526020016000205482600360003373ffffffffffffffffffffffffffffffffffffffff1673ffffffffffffffffffffffffffffffffffffffff16815260200190815260200160002054011015151561167357600080fd5b826002016000868152602001908152602001600020600201600085815260200190815260200160002060000154905081600360003373ffffffffffffffffffffffffffffffffffffffff1673ffffffffffffffffffffffffffffffffffffffff1681526020019081526020016000206000828254019250508190555060008360020160008781526020019081526020016000206002016000868152602001908152602001600020600001819055503373ffffffffffffffffffffffffffffffffffffffff168673ffffffffffffffffffffffffffffffffffffffff167f28b568c7ccedd35a1c186604f772da56fe726c2cc902904877c937112f46582e83888860405180848152602001838152602001828152602001935050505060405180910390a3505050505050565b60608060006060806000806000806117b58a6124c7565b965086600901546040519080825280602002602001820160405280156117ea5781602001602082028038833980820191505090505b50955086600901546040519080825280602002602001820160405280156118205781602001602082028038833980820191505090505b509450600093508660070154925060008760070154111561195f575b86600801548311151561195e5760009150600090508660060160008481526020019081526020016000206003015490505b86600601600084815260200190815260200160002060040154811115156118cc5786600601600084815260200190815260200160002060020160008281526020019081526020016000206000015482019150808060010191505061186d565b6000821115611910578185858151811015156118e457fe5b906020019060200201818152505082868581518110151561190157fe5b90602001906020020181815250505b60008760060160008581526020019081526020016000206000015414156119365761195e565b866006016000848152602001908152602001600020600001549250838060010194505061183c565b5b85859850985050505050505050915091565b6000809054906101000a900473ffffffffffffffffffffffffffffffffffffffff1673ffffffffffffffffffffffffffffffffffffffff163373ffffffffffffffffffffffffffffffffffffffff161415156119cc57600080fd5b806000806101000a81548173ffffffffffffffffffffffffffffffffffffffff021916908373ffffffffffffffffffffffffffffffffffffffff16021790555050565b600360003373ffffffffffffffffffffffffffffffffffffffff1673ffffffffffffffffffffffffffffffffffffffff1681526020019081526020016000205434600360003373ffffffffffffffffffffffffffffffffffffffff1673ffffffffffffffffffffffffffffffffffffffff1681526020019081526020016000205401111515611a9d57600080fd5b34600360003373ffffffffffffffffffffffffffffffffffffffff1673ffffffffffffffffffffffffffffffffffffffff168152602001908152602001600020600082825401925050819055503373ffffffffffffffffffffffffffffffffffffffff163073ffffffffffffffffffffffffffffffffffffffff167f5548c837ab068cf56a2c2479df0882a4922fd203edb7517321831d95078c5f62346040518082815260200191505060405180910390a3565b600080600160008473ffffffffffffffffffffffffffffffffffffffff1673ffffffffffffffffffffffffffffffffffffffff1681526020019081526020016000209050600073ffffffffffffffffffffffffffffffffffffffff168160000160009054906101000a900473ffffffffffffffffffffffffffffffffffffffff1673ffffffffffffffffffffffffffffffffffffffff161415611bf75760009150611bfc565b600191505b50919050565b6000806000611c10866124c7565b92503373ffffffffffffffffffffffffffffffffffffffff16836006016000878152602001908152602001600020600201600086815260200190815260200160002060010160009054906101000a900473ffffffffffffffffffffffffffffffffffffffff1673ffffffffffffffffffffffffffffffffffffffff16141515611c9857600080fd5b8260060160008681526020019081526020016000206002016000858152602001908152602001600020600001549150600260003373ffffffffffffffffffffffffffffffffffffffff1673ffffffffffffffffffffffffffffffffffffffff16815260200190815260200160002060008773ffffffffffffffffffffffffffffffffffffffff1673ffffffffffffffffffffffffffffffffffffffff1681526020019081526020016000205482600260003373ffffffffffffffffffffffffffffffffffffffff1673ffffffffffffffffffffffffffffffffffffffff16815260200190815260200160002060008973ffffffffffffffffffffffffffffffffffffffff1673ffffffffffffffffffffffffffffffffffffffff168152602001908152602001600020540110151515611dd057600080fd5b826006016000868152602001908152602001600020600201600085815260200190815260200160002060000154905081600260003373ffffffffffffffffffffffffffffffffffffffff1673ffffffffffffffffffffffffffffffffffffffff16815260200190815260200160002060008873ffffffffffffffffffffffffffffffffffffffff1673ffffffffffffffffffffffffffffffffffffffff1681526020019081526020016000206000828254019250508190555060008360060160008781526020019081526020016000206002016000868152602001908152602001600020600001819055503373ffffffffffffffffffffffffffffffffffffffff168673ffffffffffffffffffffffffffffffffffffffff167fd1cd244737e688ff778872585f9aea81b7effba00c3508bf373e315d5c455b1783888860405180848152602001838152602001828152602001935050505060405180910390a3505050505050565b6000809054906101000a900473ffffffffffffffffffffffffffffffffffffffff1673ffffffffffffffffffffffffffffffffffffffff163373ffffffffffffffffffffffffffffffffffffffff16141515611f9357600080fd5b611f9c81611b51565b151515611fa857600080fd5b81600160008373ffffffffffffffffffffffffffffffffffffffff1673ffffffffffffffffffffffffffffffffffffffff1681526020019081526020016000206001019080519060200190611ffe9291906148b3565b5080600160008373ffffffffffffffffffffffffffffffffffffffff1673ffffffffffffffffffffffffffffffffffffffff16815260200190815260200160002060000160006101000a81548173ffffffffffffffffffffffffffffffffffffffff021916908373ffffffffffffffffffffffffffffffffffffffff1602179055505050565b606080600060608060008060008061209b8a6124c7565b965086600501546040519080825280602002602001820160405280156120d05781602001602082028038833980820191505090505b50955086600501546040519080825280602002602001820160405280156121065781602001602082028038833980820191505090505b5094506000935086600401549250600087600301541115612244575b8660030154831115156122435760009150600090508660020160008481526020019081526020016000206003015490505b86600201600084815260200190815260200160002060040154811115156121b257866002016000848152602001908152602001600020600201600082815260200190815260200160002060000154820191508080600101915050612153565b60008211156121f6578286858151811015156121ca57fe5b90602001906020020181815250508185858151811015156121e757fe5b90602001906020020181815250505b8660020160008481526020019081526020016000206000015483141561221b57612243565b8660020160008481526020019081526020016000206000015492508380600101945050612122565b5b85859850985050505050505050915091565b6000806000612264866124c7565b925060008360090154148061227c5750838360070154115b1561245257838502915084821015151561229557600080fd5b8382101515156122a457600080fd5b81600360003373ffffffffffffffffffffffffffffffffffffffff1673ffffffffffffffffffffffffffffffffffffffff16815260200190815260200160002054101515156122f257600080fd5b600082600360003373ffffffffffffffffffffffffffffffffffffffff1673ffffffffffffffffffffffffffffffffffffffff16815260200190815260200160002054031015151561234357600080fd5b81600360003373ffffffffffffffffffffffffffffffffffffffff1673ffffffffffffffffffffffffffffffffffffffff1681526020019081526020016000206000828254039250508190555061239c838587336138e4565b3373ffffffffffffffffffffffffffffffffffffffff168360000160009054906101000a900473ffffffffffffffffffffffffffffffffffffffff1673ffffffffffffffffffffffffffffffffffffffff167fe85d5631c88985ec55a5c6e225193b0115e85dbb039156e56f153d58f1090c5387878760020160008a81526020019081526020016000206004015460405180848152602001838152602001828152602001935050505060405180910390a361249a565b61245e83858733613c90565b90506000811115612499576124988360000160009054906101000a900473ffffffffffffffffffffffffffffffffffffffff168583612256565b5b5b505050505050565b6000809054906101000a900473ffffffffffffffffffffffffffffffffffffffff1681565b600080600160008473ffffffffffffffffffffffffffffffffffffffff1673ffffffffffffffffffffffffffffffffffffffff1681526020019081526020016000209050600073ffffffffffffffffffffffffffffffffffffffff168160000160009054906101000a900473ffffffffffffffffffffffffffffffffffffffff1673ffffffffffffffffffffffffffffffffffffffff161415151561256b57600080fd5b80915050919050565b6000806000808760060160008881526020019081526020016000206004016000815480929190600101919050555060408051908101604052808781526020018673ffffffffffffffffffffffffffffffffffffffff1681525088600601600089815260200190815260200160002060020160008a60060160008b81526020019081526020016000206004015481526020019081526020016000206000820151816000015560208201518160010160006101000a81548173ffffffffffffffffffffffffffffffffffffffff021916908373ffffffffffffffffffffffffffffffffffffffff1602179055509050506001886006016000898152602001908152602001600020600401541415612914576001886006016000898152602001908152602001600020600301819055508760090160008154809291906001019190505550876007015493508760080154925060008314806126d157508683105b1561279057600084141561272957868860070181905550600088600601600089815260200190815260200160002060000181905550600088600601600089815260200190815260200160002060010181905550612782565b868860060160008581526020019081526020016000206000018190555082886006016000898152602001908152602001600020600101819055506000886006016000898152602001908152602001600020600001819055505b868860080181905550612913565b868411156127fe5786886006016000868152602001908152602001600020600101819055508388600601600089815260200190815260200160002060000181905550600088600601600089815260200190815260200160002060010181905550868860070181905550612912565b87600701549150600090505b600082118015612818575080155b1561291157868210801561284357508688600601600084815260200190815260200160002060000154115b156128f15781886006016000898152602001908152602001600020600101819055508760060160008381526020019081526020016000206000015488600601600089815260200190815260200160002060000181905550868860060160008a6006016000868152602001908152602001600020600001548152602001908152602001600020600101819055508688600601600084815260200190815260200160002060000181905550600190505b87600601600083815260200190815260200160002060000154915061280a565b5b5b5b5050505050505050565b60008060008060008060008a60030154955088945060009350600092505b89861015801561294c5750600085115b156138d3578a60020160008781526020019081526020016000206003015491505b8a60020160008781526020019081526020016000206004015482111580156129955750600085115b156138c7578a6002016000878152602001908152602001600020600201600083815260200190815260200160002060000154905084811115156130f557858102935080600260008a73ffffffffffffffffffffffffffffffffffffffff1673ffffffffffffffffffffffffffffffffffffffff16815260200190815260200160002060008d60000160009054906101000a900473ffffffffffffffffffffffffffffffffffffffff1673ffffffffffffffffffffffffffffffffffffffff1673ffffffffffffffffffffffffffffffffffffffff1681526020019081526020016000205410151515612a8657600080fd5b80600260008a73ffffffffffffffffffffffffffffffffffffffff1673ffffffffffffffffffffffffffffffffffffffff16815260200190815260200160002060008d60000160009054906101000a900473ffffffffffffffffffffffffffffffffffffffff1673ffffffffffffffffffffffffffffffffffffffff1673ffffffffffffffffffffffffffffffffffffffff16815260200190815260200160002060008282540392505081905550600081600260008b73ffffffffffffffffffffffffffffffffffffffff1673ffffffffffffffffffffffffffffffffffffffff16815260200190815260200160002060008e60000160009054906101000a900473ffffffffffffffffffffffffffffffffffffffff1673ffffffffffffffffffffffffffffffffffffffff1673ffffffffffffffffffffffffffffffffffffffff168152602001908152602001600020540310151515612be657600080fd5b600260008c6002016000898152602001908152602001600020600201600085815260200190815260200160002060010160009054906101000a900473ffffffffffffffffffffffffffffffffffffffff1673ffffffffffffffffffffffffffffffffffffffff1673ffffffffffffffffffffffffffffffffffffffff16815260200190815260200160002060008c60000160009054906101000a900473ffffffffffffffffffffffffffffffffffffffff1673ffffffffffffffffffffffffffffffffffffffff1673ffffffffffffffffffffffffffffffffffffffff1681526020019081526020016000205481600260008e60020160008b8152602001908152602001600020600201600087815260200190815260200160002060010160009054906101000a900473ffffffffffffffffffffffffffffffffffffffff1673ffffffffffffffffffffffffffffffffffffffff1673ffffffffffffffffffffffffffffffffffffffff16815260200190815260200160002060008e60000160009054906101000a900473ffffffffffffffffffffffffffffffffffffffff1673ffffffffffffffffffffffffffffffffffffffff1673ffffffffffffffffffffffffffffffffffffffff168152602001908152602001600020540110151515612dcf57600080fd5b600360008973ffffffffffffffffffffffffffffffffffffffff1673ffffffffffffffffffffffffffffffffffffffff1681526020019081526020016000205484600360008b73ffffffffffffffffffffffffffffffffffffffff1673ffffffffffffffffffffffffffffffffffffffff168152602001908152602001600020540110151515612e5e57600080fd5b80600260008d60020160008a8152602001908152602001600020600201600086815260200190815260200160002060010160009054906101000a900473ffffffffffffffffffffffffffffffffffffffff1673ffffffffffffffffffffffffffffffffffffffff1673ffffffffffffffffffffffffffffffffffffffff16815260200190815260200160002060008d60000160009054906101000a900473ffffffffffffffffffffffffffffffffffffffff1673ffffffffffffffffffffffffffffffffffffffff1673ffffffffffffffffffffffffffffffffffffffff168152602001908152602001600020600082825401925050819055506000600160008d60000160009054906101000a900473ffffffffffffffffffffffffffffffffffffffff1673ffffffffffffffffffffffffffffffffffffffff1673ffffffffffffffffffffffffffffffffffffffff168152602001908152602001600020600201600088815260200190815260200160002060020160008481526020019081526020016000206000018190555083600360008a73ffffffffffffffffffffffffffffffffffffffff1673ffffffffffffffffffffffffffffffffffffffff168152602001908152602001600020600082825401925050819055508a6002016000878152602001908152602001600020600301600081548092919060010191905055508a60000160009054906101000a900473ffffffffffffffffffffffffffffffffffffffff1673ffffffffffffffffffffffffffffffffffffffff167ffea601e38d3c3f98a2ac47dd53182da288499c214986593b34438c3a81235d4b828842866040518085815260200184815260200183815260200182815260200194505050505060405180910390a2808503945061379f565b600085820311151561310657600080fd5b858502925084600260008a73ffffffffffffffffffffffffffffffffffffffff1673ffffffffffffffffffffffffffffffffffffffff16815260200190815260200160002060008d60000160009054906101000a900473ffffffffffffffffffffffffffffffffffffffff1673ffffffffffffffffffffffffffffffffffffffff1673ffffffffffffffffffffffffffffffffffffffff16815260200190815260200160002054101515156131ba57600080fd5b84600260008a73ffffffffffffffffffffffffffffffffffffffff1673ffffffffffffffffffffffffffffffffffffffff16815260200190815260200160002060008d60000160009054906101000a900473ffffffffffffffffffffffffffffffffffffffff1673ffffffffffffffffffffffffffffffffffffffff1673ffffffffffffffffffffffffffffffffffffffff1681526020019081526020016000206000828254039250508190555084600260008a73ffffffffffffffffffffffffffffffffffffffff1673ffffffffffffffffffffffffffffffffffffffff16815260200190815260200160002060008d60000160009054906101000a900473ffffffffffffffffffffffffffffffffffffffff1673ffffffffffffffffffffffffffffffffffffffff1673ffffffffffffffffffffffffffffffffffffffff168152602001908152602001600020541015151561331757600080fd5b600360003373ffffffffffffffffffffffffffffffffffffffff1673ffffffffffffffffffffffffffffffffffffffff1681526020019081526020016000205483600360008b73ffffffffffffffffffffffffffffffffffffffff1673ffffffffffffffffffffffffffffffffffffffff1681526020019081526020016000205401101515156133a657600080fd5b600260008c6002016000898152602001908152602001600020600201600085815260200190815260200160002060010160009054906101000a900473ffffffffffffffffffffffffffffffffffffffff1673ffffffffffffffffffffffffffffffffffffffff1673ffffffffffffffffffffffffffffffffffffffff16815260200190815260200160002060008c60000160009054906101000a900473ffffffffffffffffffffffffffffffffffffffff1673ffffffffffffffffffffffffffffffffffffffff1673ffffffffffffffffffffffffffffffffffffffff1681526020019081526020016000205485600260008e60020160008b8152602001908152602001600020600201600087815260200190815260200160002060010160009054906101000a900473ffffffffffffffffffffffffffffffffffffffff1673ffffffffffffffffffffffffffffffffffffffff1673ffffffffffffffffffffffffffffffffffffffff16815260200190815260200160002060008e60000160009054906101000a900473ffffffffffffffffffffffffffffffffffffffff1673ffffffffffffffffffffffffffffffffffffffff1673ffffffffffffffffffffffffffffffffffffffff16815260200190815260200160002054011015151561358f57600080fd5b848b600201600088815260200190815260200160002060020160008481526020019081526020016000206000016000828254039250508190555082600360008a73ffffffffffffffffffffffffffffffffffffffff1673ffffffffffffffffffffffffffffffffffffffff1681526020019081526020016000206000828254019250508190555084600260008d60020160008a8152602001908152602001600020600201600086815260200190815260200160002060010160009054906101000a900473ffffffffffffffffffffffffffffffffffffffff1673ffffffffffffffffffffffffffffffffffffffff1673ffffffffffffffffffffffffffffffffffffffff16815260200190815260200160002060008d60000160009054906101000a900473ffffffffffffffffffffffffffffffffffffffff1673ffffffffffffffffffffffffffffffffffffffff1673ffffffffffffffffffffffffffffffffffffffff168152602001908152602001600020600082825401925050819055508a60000160009054906101000a900473ffffffffffffffffffffffffffffffffffffffff1673ffffffffffffffffffffffffffffffffffffffff167ffea601e38d3c3f98a2ac47dd53182da288499c214986593b34438c3a81235d4b868842866040518085815260200184815260200183815260200182815260200194505050505060405180910390a2600094505b8a600201600087815260200190815260200160002060040154821480156137f2575060008b6002016000888152602001908152602001600020600201600084815260200190815260200160002060000154145b156138ba578a60050160008154809291906001900391905055508a60020160008781526020019081526020016000206001015486148061384a575060008b600201600088815260200190815260200160002060010154145b1561385e5760008b600301819055506138b9565b8a6002016000878152602001908152602001600020600101548b600301819055508a600301548b60020160008d60020160008a8152602001908152602001600020600101548152602001908152602001600020600001819055505b5b818060010192505061296d565b8a60030154955061293c565b849650505050505050949350505050565b6000806000808760020160008881526020019081526020016000206004016000815480929190600101919050555060408051908101604052808781526020018673ffffffffffffffffffffffffffffffffffffffff1681525088600201600089815260200190815260200160002060020160008a60020160008b81526020019081526020016000206004015481526020019081526020016000206000820151816000015560208201518160010160006101000a81548173ffffffffffffffffffffffffffffffffffffffff021916908373ffffffffffffffffffffffffffffffffffffffff1602179055509050506001886002016000898152602001908152602001600020600401541415613c8657600188600201600089815260200190815260200160002060030181905550876005016000815480929190600101919050555087600301549350876004015492506000831480613a455750868860040154115b15613b03576000841415613a9c578688600301819055508688600201600089815260200190815260200160002060000181905550600088600201600089815260200190815260200160002060010181905550613af5565b868860020160008581526020019081526020016000206001018190555082886002016000898152602001908152602001600020600001819055506000886002016000898152602001908152602001600020600101819055505b868860040181905550613c85565b86841015613b7057868860020160008681526020019081526020016000206000018190555086886002016000898152602001908152602001600020600001819055508388600201600089815260200190815260200160002060010181905550868860030181905550613c84565b87600301549150600090505b600082118015613b8a575080155b15613c83578682108015613bb557508688600201600084815260200190815260200160002060000154115b15613c635781886002016000898152602001908152602001600020600101819055508760020160008381526020019081526020016000206000015488600201600089815260200190815260200160002060000181905550868860020160008a6002016000868152602001908152602001600020600001548152602001908152602001600020600101819055508688600201600084815260200190815260200160002060000181905550600190505b876002016000838152602001908152602001600020600101549150613b7c565b5b5b5b5050505050505050565b60008060008060008060008095508a600701549450889350600091505b898511158015613cbd5750600084115b156148a2578a60060160008681526020019081526020016000206003015492505b8a6006016000868152602001908152602001600020600401548311158015613d065750600084115b15614896578a60060160008681526020019081526020016000206002016000848152602001908152602001600020600001549050838111151561431f57848102955085600360008a73ffffffffffffffffffffffffffffffffffffffff1673ffffffffffffffffffffffffffffffffffffffff1681526020019081526020016000205410151515613d9657600080fd5b600360008973ffffffffffffffffffffffffffffffffffffffff1673ffffffffffffffffffffffffffffffffffffffff1681526020019081526020016000205486600360008b73ffffffffffffffffffffffffffffffffffffffff1673ffffffffffffffffffffffffffffffffffffffff168152602001908152602001600020540311151515613e2557600080fd5b85600360008a73ffffffffffffffffffffffffffffffffffffffff1673ffffffffffffffffffffffffffffffffffffffff16815260200190815260200160002060008282540392505081905550600260008973ffffffffffffffffffffffffffffffffffffffff1673ffffffffffffffffffffffffffffffffffffffff16815260200190815260200160002060008c60000160009054906101000a900473ffffffffffffffffffffffffffffffffffffffff1673ffffffffffffffffffffffffffffffffffffffff1673ffffffffffffffffffffffffffffffffffffffff1681526020019081526020016000205481600260008b73ffffffffffffffffffffffffffffffffffffffff1673ffffffffffffffffffffffffffffffffffffffff16815260200190815260200160002060008e60000160009054906101000a900473ffffffffffffffffffffffffffffffffffffffff1673ffffffffffffffffffffffffffffffffffffffff1673ffffffffffffffffffffffffffffffffffffffff168152602001908152602001600020540110151515613fc357600080fd5b600360008c6006016000888152602001908152602001600020600201600086815260200190815260200160002060010160009054906101000a900473ffffffffffffffffffffffffffffffffffffffff1673ffffffffffffffffffffffffffffffffffffffff1673ffffffffffffffffffffffffffffffffffffffff1681526020019081526020016000205486600360008e60060160008a8152602001908152602001600020600201600088815260200190815260200160002060010160009054906101000a900473ffffffffffffffffffffffffffffffffffffffff1673ffffffffffffffffffffffffffffffffffffffff1673ffffffffffffffffffffffffffffffffffffffff1681526020019081526020016000205401101515156140ea57600080fd5b80600260008a73ffffffffffffffffffffffffffffffffffffffff1673ffffffffffffffffffffffffffffffffffffffff16815260200190815260200160002060008d60000160009054906101000a900473ffffffffffffffffffffffffffffffffffffffff1673ffffffffffffffffffffffffffffffffffffffff1673ffffffffffffffffffffffffffffffffffffffff1681526020019081526020016000206000828254019250508190555060008b600601600087815260200190815260200160002060020160008581526020019081526020016000206000018190555085600360008d6006016000898152602001908152602001600020600201600087815260200190815260200160002060010160009054906101000a900473ffffffffffffffffffffffffffffffffffffffff1673ffffffffffffffffffffffffffffffffffffffff1673ffffffffffffffffffffffffffffffffffffffff168152602001908152602001600020600082825401925050819055508a6006016000868152602001908152602001600020600301600081548092919060010191905055508a60000160009054906101000a900473ffffffffffffffffffffffffffffffffffffffff1673ffffffffffffffffffffffffffffffffffffffff167fd87b662b9e7257e497908d5377b8aed930087ad858bad41e5610643ebf88f738828742876040518085815260200184815260200183815260200182815260200194505050505060405180910390a28084039350614771565b838b600601600087815260200190815260200160002060020160008581526020019081526020016000206000015411151561435957600080fd5b8484029150600360008973ffffffffffffffffffffffffffffffffffffffff1673ffffffffffffffffffffffffffffffffffffffff1681526020019081526020016000205482600360008b73ffffffffffffffffffffffffffffffffffffffff1673ffffffffffffffffffffffffffffffffffffffff1681526020019081526020016000205403111515156143ed57600080fd5b81600360008a73ffffffffffffffffffffffffffffffffffffffff1673ffffffffffffffffffffffffffffffffffffffff16815260200190815260200160002060008282540392505081905550600360008c6006016000888152602001908152602001600020600201600086815260200190815260200160002060010160009054906101000a900473ffffffffffffffffffffffffffffffffffffffff1673ffffffffffffffffffffffffffffffffffffffff1673ffffffffffffffffffffffffffffffffffffffff1681526020019081526020016000205482600360008e60060160008a8152602001908152602001600020600201600088815260200190815260200160002060010160009054906101000a900473ffffffffffffffffffffffffffffffffffffffff1673ffffffffffffffffffffffffffffffffffffffff1673ffffffffffffffffffffffffffffffffffffffff16815260200190815260200160002054011015151561456157600080fd5b838b600601600087815260200190815260200160002060020160008581526020019081526020016000206000016000828254039250508190555081600360008d6006016000898152602001908152602001600020600201600087815260200190815260200160002060010160009054906101000a900473ffffffffffffffffffffffffffffffffffffffff1673ffffffffffffffffffffffffffffffffffffffff1673ffffffffffffffffffffffffffffffffffffffff1681526020019081526020016000206000828254019250508190555083600260008a73ffffffffffffffffffffffffffffffffffffffff1673ffffffffffffffffffffffffffffffffffffffff16815260200190815260200160002060008d60000160009054906101000a900473ffffffffffffffffffffffffffffffffffffffff1673ffffffffffffffffffffffffffffffffffffffff1673ffffffffffffffffffffffffffffffffffffffff168152602001908152602001600020600082825401925050819055508a60000160009054906101000a900473ffffffffffffffffffffffffffffffffffffffff1673ffffffffffffffffffffffffffffffffffffffff167fd87b662b9e7257e497908d5377b8aed930087ad858bad41e5610643ebf88f738858742876040518085815260200184815260200183815260200182815260200194505050505060405180910390a2600093505b8a600601600086815260200190815260200160002060040154831480156147c4575060008b6006016000878152602001908152602001600020600201600085815260200190815260200160002060000154145b15614889578a60090160008154809291906001900391905055508a60060160008681526020019081526020016000206000015485148061481c575060008b600201600087815260200190815260200160002060000154145b156148305760008b60070181905550614888565b8a6006016000868152602001908152602001600020600001548b6007018190555060008b60060160008d6002016000898152602001908152602001600020600001548152602001908152602001600020600101819055505b5b8280600101935050613cde565b8a600701549450613cad565b839650505050505050949350505050565b828054600181600116156101000203166002900490600052602060002090601f016020900481019282601f106148f457805160ff1916838001178555614922565b82800160010185558215614922579182015b82811115614921578251825591602001919060010190614906565b5b50905061492f9190614933565b5090565b61495591905b80821115614951576000816000905550600101614939565b5090565b905600a165627a7a72305820ffb0d3275ecd9daaa07574351eb3a2f3a3f8252ee4060cdf27e353cdffc3f8f60029",
  "source": "pragma solidity ^0.4.23;\n\nimport { administrated } from \"./administrated.sol\";\nimport { Erc20Token } from \"./Erc20Token.sol\";\n\ncontract Zephyr is administrated{\n\n    struct Token {\n        address contractAddress;\n        string symbolName;\n\n        mapping(uint => OrderBook) buyOrderBook;\n        uint currentBuyPrice;\n        uint lowestBuyPrice;\n        uint buyOrderBookLength;\n\n        mapping(uint => OrderBook) sellOrderBook;\n        uint currentSellPrice;\n        uint highestSellPrice;\n        uint sellOrderBookLength;\n    }\n\n    struct OrderBook {\n        uint higherPrice;\n        uint lowerPrice;\n\n        mapping(uint => Offer) offers;\n        uint offers_key;\n        uint offers_length;\n    }\n\n    struct Offer {\n        uint amount;\n        address who;\n    }\n\n    mapping(address => Token) tokens;\n\n    mapping(address => mapping(address => uint)) tokenBalanceForAddress;\n    mapping(address => uint) etherBalanceForAddress;\n\n    event Deposit(address indexed tokenAddress, address indexed fromAddress, uint amount);\n    event Withdraw(address indexed tokenAddress, address indexed toAddress, uint amount);\n\n    event NewBuyLimitOrder(address indexed tokenAddress, address indexed who, uint amount, uint priceInWei, uint offerKey);\n    event BuyLimitOrderCancel(address indexed tokenAddress, address indexed who, uint amount, uint priceInWei, uint offerKey);\n    event BuyLimitOrderFilled(address indexed tokenAddress, uint amount, uint priceInWei, uint timestamp, uint offerKey);\n\n    event NewSellLimitOrder(address indexed tokenAddress, address indexed who, uint amount, uint priceInWei, uint offerKey);\n    event SellLimitOrderCancel(address indexed tokenAddress, address indexed who, uint amount, uint priceInWei, uint offerKey);\n    event SellLimitOrderFilled(address indexed tokenAddress, uint amount, uint priceInWei, uint timestamp, uint offerKey);\n\n    function addToken(string symbol, address contractAddress) public onlyAdmin {\n        require(!hasToken(contractAddress));\n\n        tokens[contractAddress].symbolName = symbol;\n        tokens[contractAddress].contractAddress = contractAddress;\n    }\n\n    function hasToken(address contractAddress) public view returns (bool){\n        Token storage token = tokens[contractAddress];\n        if(token.contractAddress == address(0)){\n            return false;\n        }\n        return true;\n    }\n\n    function depositEther() public payable{\n        require(etherBalanceForAddress[msg.sender] + msg.value > etherBalanceForAddress[msg.sender]);\n        \n        etherBalanceForAddress[msg.sender] += msg.value;\n        \n        emit Deposit(address(this), msg.sender, msg.value);\n    }\n    \n    function withdrawEther(uint amountInWei) public {\n        require(etherBalanceForAddress[msg.sender] >= amountInWei);\n        require(etherBalanceForAddress[msg.sender] - amountInWei <= etherBalanceForAddress[msg.sender]);\n\n        etherBalanceForAddress[msg.sender] -= amountInWei;\n        msg.sender.transfer(amountInWei);\n\n        emit Withdraw(address(this), msg.sender, amountInWei);\n    }\n\n    function getEtherBalanceInWei() public view returns (uint){\n        return etherBalanceForAddress[msg.sender];\n    }\n\n    function depositToken(address contractAddress, uint amount) public {\n        require(tokens[contractAddress].contractAddress != address(0));\n        require(tokenBalanceForAddress[msg.sender][contractAddress] + amount >= tokenBalanceForAddress[msg.sender][contractAddress]);\n\n        Erc20Token tokenContract = Erc20Token(contractAddress);\n        \n        bool isTransferSuccess = tokenContract.transferFrom(msg.sender, address(this), amount);\n        require(isTransferSuccess);\n\n        tokenBalanceForAddress[msg.sender][contractAddress] += amount;\n\n        emit Deposit(address(this), msg.sender, amount);\n    }\n\n    function withdrawTokens(address contractAddress, uint amount) public {\n        Token storage token = getTokenSafe(contractAddress);\n        require(tokenBalanceForAddress[msg.sender][contractAddress] >= amount);\n        require(tokenBalanceForAddress[msg.sender][contractAddress] - amount <= tokenBalanceForAddress[msg.sender][contractAddress]);\n        \n        Erc20Token tokenContract = Erc20Token(token.contractAddress);\n\n        bool isTransferSuccess = tokenContract.transfer(msg.sender, amount);\n        require(isTransferSuccess);\n\n        tokenBalanceForAddress[msg.sender][contractAddress] -= amount;\n        emit Withdraw(token.contractAddress, msg.sender, amount);\n    }\n\n    function getTokenBalance(address contractAddress) public view returns (uint){\n        return tokenBalanceForAddress[msg.sender][contractAddress];\n    }\n\n    function buyToken(address contractAddress, uint amount, uint priceInWei) public {\n        Token storage token = getTokenSafe(contractAddress);\n\n        if(token.sellOrderBookLength == 0 || token.currentSellPrice > priceInWei){\n            uint totalPriceInWei = amount * priceInWei;\n            \n            require(totalPriceInWei >= amount);\n            require(totalPriceInWei >= priceInWei);\n            require(etherBalanceForAddress[msg.sender] >= totalPriceInWei);\n            require(etherBalanceForAddress[msg.sender] - totalPriceInWei >= 0);\n\n            etherBalanceForAddress[msg.sender] -= totalPriceInWei;\n            addBuyLimitOrder(token, priceInWei, amount, msg.sender);\n            emit NewBuyLimitOrder(token.contractAddress, msg.sender, amount, priceInWei, token.buyOrderBook[priceInWei].offers_length);\n        }else {\n            uint amountNecessary = addBuyMarketOrder(token, priceInWei, amount, msg.sender);\n            if (amountNecessary > 0) {\n                buyToken(token.contractAddress, priceInWei, amountNecessary);\n            }\n        }\n    }\n    \n    function sellToken(address contractAddress, uint amount, uint priceInWei) public {\n        Token storage token = getTokenSafe(contractAddress);\n        \n        if(token.buyOrderBookLength == 0 || token.currentBuyPrice < priceInWei){\n            uint totalPriceInWei = amount * priceInWei;\n\n            require(totalPriceInWei >= amount);\n            require(totalPriceInWei >= priceInWei);\n            require(tokenBalanceForAddress[msg.sender][contractAddress] >= amount);\n            require(tokenBalanceForAddress[msg.sender][contractAddress] - amount <= tokenBalanceForAddress[msg.sender][contractAddress]);\n            require(etherBalanceForAddress[msg.sender] + totalPriceInWei > etherBalanceForAddress[msg.sender]);\n\n            tokenBalanceForAddress[msg.sender][contractAddress] -= amount;\n\n            addSellLimitOrder(token, priceInWei, amount, msg.sender);\n\n            emit NewSellLimitOrder(token.contractAddress, msg.sender, amount, priceInWei, token.sellOrderBook[priceInWei].offers_length);\n        }else{\n            uint amountNecessary = addSellMarketOrder(token, priceInWei, amount, msg.sender);\n            if(amountNecessary > 0){\n                sellToken(token.contractAddress, amountNecessary, priceInWei);\n            }\n        }\n    }\n\n    function getBuyOrderBook(address contractAddress) public view returns (uint[], uint[]){\n        Token storage token = getTokenSafe(contractAddress);\n\n        uint[] memory buyPrices = new uint[](token.buyOrderBookLength);\n        uint[] memory buyVolumes = new uint[](token.buyOrderBookLength);\n\n        uint counter = 0;\n        uint price = token.lowestBuyPrice;\n\n        if (token.currentBuyPrice > 0) {\n            while (price <= token.currentBuyPrice) {\n\n                uint volumeAtPrice = 0;\n                uint offers_key = 0;\n\n                offers_key = token.buyOrderBook[price].offers_key;\n                while (offers_key <= token.buyOrderBook[price].offers_length) {\n                    volumeAtPrice += token.buyOrderBook[price].offers[offers_key].amount;\n                    offers_key++;\n                }\n\n                if(volumeAtPrice > 0){\n                    buyPrices[counter] = price;\n                    buyVolumes[counter] = volumeAtPrice;\n                }\n\n                if (price == token.buyOrderBook[price].higherPrice) {\n                    break;\n                }\n                else {\n                    price = token.buyOrderBook[price].higherPrice;\n                }\n                counter++;\n            }\n        }\n\n        return (buyPrices, buyVolumes);\n    }\n\n    function getSellOrderBook(address contractAddress) public view returns (uint[], uint[]){\n        Token storage token = getTokenSafe(contractAddress);\n\n        uint[] memory sellPrices = new uint[](token.sellOrderBookLength);\n        uint[] memory sellVolumes = new uint[](token.sellOrderBookLength);\n\n        uint counter = 0;\n        uint price = token.currentSellPrice;\n\n        if (token.currentSellPrice > 0) {\n            while (price <= token.highestSellPrice) {\n\n                uint volumeAtPrice = 0;\n                uint offers_key = 0;\n\n                offers_key = token.sellOrderBook[price].offers_key;\n                while (offers_key <= token.sellOrderBook[price].offers_length) {\n                    volumeAtPrice += token.sellOrderBook[price].offers[offers_key].amount;\n                    offers_key++;\n                }\n\n                if(volumeAtPrice > 0){\n                    sellVolumes[counter] = volumeAtPrice;\n                    sellPrices[counter] = price;\n                }\n\n                if (token.sellOrderBook[price].higherPrice == 0) {\n                    break;\n                }\n                else {\n                    price = token.sellOrderBook[price].higherPrice;\n                }\n                counter++;\n            }\n        }\n\n        return (sellPrices, sellVolumes);\n    }\n\n    function cancelBuyLimitOrder(address contractAddress, uint priceInWei, uint offerKey) public {\n        Token storage token = getTokenSafe(contractAddress);\n\n        require(token.buyOrderBook[priceInWei].offers[offerKey].who == msg.sender);\n        uint etherToRefund = token.buyOrderBook[priceInWei].offers[offerKey].amount * priceInWei;\n        require(etherBalanceForAddress[msg.sender] + etherToRefund >= etherBalanceForAddress[msg.sender]);\n\n        uint amountToCancel = token.buyOrderBook[priceInWei].offers[offerKey].amount;\n\n        etherBalanceForAddress[msg.sender] += etherToRefund;\n        token.buyOrderBook[priceInWei].offers[offerKey].amount = 0;\n\n        emit BuyLimitOrderCancel(contractAddress, msg.sender, amountToCancel, priceInWei, offerKey);\n    }\n\n    function cancelSellLimitOrder(address contractAddress, uint priceInWei, uint offerKey) public {\n        Token storage token = getTokenSafe(contractAddress);\n\n        require(token.sellOrderBook[priceInWei].offers[offerKey].who == msg.sender);\n\n        uint tokensAmount = token.sellOrderBook[priceInWei].offers[offerKey].amount;\n        require(tokenBalanceForAddress[msg.sender][contractAddress] + tokensAmount >= tokenBalanceForAddress[msg.sender][contractAddress]);\n\n        uint amountToCancel = token.sellOrderBook[priceInWei].offers[offerKey].amount;\n\n        tokenBalanceForAddress[msg.sender][contractAddress] += tokensAmount;\n        token.sellOrderBook[priceInWei].offers[offerKey].amount = 0;\n        \n        emit SellLimitOrderCancel(contractAddress, msg.sender, amountToCancel, priceInWei, offerKey);\n    }\n\n    function addBuyLimitOrder(Token storage token, uint priceInWei, uint amount, address buyer) internal {\n\n        token.buyOrderBook[priceInWei].offers_length ++;\n        token.buyOrderBook[priceInWei].offers[token.buyOrderBook[priceInWei].offers_length] = Offer({\n            amount: amount,\n            who: buyer\n        });\n\n        if(token.buyOrderBook[priceInWei].offers_length == 1){\n            token.buyOrderBook[priceInWei].offers_key = 1;\n            token.buyOrderBookLength++;\n\n            uint currentBuyPrice = token.currentBuyPrice;\n            uint lowestBuyPrice = token.lowestBuyPrice;\n\n            if(lowestBuyPrice == 0 || token.lowestBuyPrice > priceInWei){\n                if(currentBuyPrice == 0){\n                    token.currentBuyPrice = priceInWei;\n                    token.buyOrderBook[priceInWei].higherPrice = priceInWei;\n                    token.buyOrderBook[priceInWei].lowerPrice = 0;\n                } else{\n                    token.buyOrderBook[lowestBuyPrice].lowerPrice = priceInWei;\n                    token.buyOrderBook[priceInWei].higherPrice = lowestBuyPrice;\n                    token.buyOrderBook[priceInWei].lowerPrice = 0;\n                }\n\n                token.lowestBuyPrice = priceInWei;\n            } else if(currentBuyPrice < priceInWei){\n                token.buyOrderBook[currentBuyPrice].higherPrice = priceInWei;\n                token.buyOrderBook[priceInWei].higherPrice = priceInWei;\n                token.buyOrderBook[priceInWei].lowerPrice = currentBuyPrice;\n                token.currentBuyPrice = priceInWei;\n            }else{\n\n                uint buyPrice = token.currentBuyPrice;\n                bool found = false;\n\n                while(buyPrice > 0 && !found){\n                    if(buyPrice<priceInWei && token.buyOrderBook[buyPrice].higherPrice > priceInWei){\n                        token.buyOrderBook[priceInWei].lowerPrice = buyPrice;\n                        token.buyOrderBook[priceInWei].higherPrice = token.buyOrderBook[buyPrice].higherPrice;\n                        token.buyOrderBook[token.buyOrderBook[buyPrice].higherPrice].lowerPrice = priceInWei;\n                        token.buyOrderBook[buyPrice].higherPrice = priceInWei;\n                        found = true;\n                    }\n                    buyPrice = token.buyOrderBook[buyPrice].lowerPrice;\n                }\n            }\n        }\n    }\n    function addBuyMarketOrder(Token storage token, uint priceInWei, uint amount, address buyer) internal returns (uint){\n        uint total_amount_ether_available = 0;\n        uint whilePrice = token.currentSellPrice;\n        uint amountNecessary = amount;\n        uint offers_key;\n        uint total_amount_ether_necessary = 0;\n\n        while (whilePrice <= priceInWei && amountNecessary > 0) {\n            offers_key = token.sellOrderBook[whilePrice].offers_key;\n            while (offers_key <= token.sellOrderBook[whilePrice].offers_length && amountNecessary > 0) {\n                uint volumeAtPriceFromAddress = token.sellOrderBook[whilePrice].offers[offers_key].amount;\n\n                if (volumeAtPriceFromAddress <= amountNecessary) {\n                    total_amount_ether_available = volumeAtPriceFromAddress * whilePrice;\n\n                    require(etherBalanceForAddress[buyer] >= total_amount_ether_available);\n                    require(etherBalanceForAddress[buyer] - total_amount_ether_available <= etherBalanceForAddress[buyer]);\n                    \n                    etherBalanceForAddress[buyer] -= total_amount_ether_available;\n\n                    require(tokenBalanceForAddress[buyer][token.contractAddress] + volumeAtPriceFromAddress >= tokenBalanceForAddress[buyer][token.contractAddress]);\n                    require(etherBalanceForAddress[token.sellOrderBook[whilePrice].offers[offers_key].who] + total_amount_ether_available >= etherBalanceForAddress[token.sellOrderBook[whilePrice].offers[offers_key].who]);\n                    \n                    tokenBalanceForAddress[buyer][token.contractAddress] += volumeAtPriceFromAddress;\n                    token.sellOrderBook[whilePrice].offers[offers_key].amount = 0;\n                    etherBalanceForAddress[token.sellOrderBook[whilePrice].offers[offers_key].who] += total_amount_ether_available;\n                    token.sellOrderBook[whilePrice].offers_key++;\n\n                    emit SellLimitOrderFilled(token.contractAddress, volumeAtPriceFromAddress, whilePrice, block.timestamp, offers_key);\n\n                    amountNecessary -= volumeAtPriceFromAddress;\n                }\n                else {\n                    require(token.sellOrderBook[whilePrice].offers[offers_key].amount > amountNecessary);\n\n                    total_amount_ether_necessary = amountNecessary * whilePrice;\n                    require(etherBalanceForAddress[buyer] - total_amount_ether_necessary <= etherBalanceForAddress[buyer]);\n\n                    etherBalanceForAddress[buyer] -= total_amount_ether_necessary;\n\n                    require(etherBalanceForAddress[token.sellOrderBook[whilePrice].offers[offers_key].who] + total_amount_ether_necessary >= etherBalanceForAddress[token.sellOrderBook[whilePrice].offers[offers_key].who]);\n                    \n                    token.sellOrderBook[whilePrice].offers[offers_key].amount -= amountNecessary;\n                    etherBalanceForAddress[token.sellOrderBook[whilePrice].offers[offers_key].who] += total_amount_ether_necessary;\n                    tokenBalanceForAddress[buyer][token.contractAddress] += amountNecessary;\n\n                    emit SellLimitOrderFilled(token.contractAddress, amountNecessary, whilePrice, block.timestamp, offers_key);\n\n                    amountNecessary = 0;\n                }\n\n                if (offers_key == token.sellOrderBook[whilePrice].offers_length &&\n                    token.sellOrderBook[whilePrice].offers[offers_key].amount == 0\n                ) {\n\n                    token.sellOrderBookLength--;\n                    if (whilePrice == token.sellOrderBook[whilePrice].higherPrice || token.buyOrderBook[whilePrice].higherPrice == 0) {\n                        token.currentSellPrice = 0;\n                    }\n                    else {\n                        token.currentSellPrice = token.sellOrderBook[whilePrice].higherPrice;\n                        token.sellOrderBook[token.buyOrderBook[whilePrice].higherPrice].lowerPrice = 0;\n                    }\n                }\n                offers_key++;\n            }\n\n            whilePrice = token.currentSellPrice;\n        }\n\n        return amountNecessary;\n    }\n    function addSellLimitOrder(Token storage token, uint priceInWei, uint amount, address seller) internal {\n\n        token.sellOrderBook[priceInWei].offers_length ++;\n        token.sellOrderBook[priceInWei].offers[token.sellOrderBook[priceInWei].offers_length] = Offer({\n            amount: amount,\n            who: seller\n        });\n\n        if(token.sellOrderBook[priceInWei].offers_length == 1){\n            token.sellOrderBook[priceInWei].offers_key = 1;\n            token.sellOrderBookLength++;\n\n            uint currentSellPrice = token.currentSellPrice;\n            uint highestSellPrice = token.highestSellPrice;\n\n            if(highestSellPrice == 0 || highestSellPrice < priceInWei){\n                if(currentSellPrice == 0){\n                    token.currentSellPrice = priceInWei;\n                    token.sellOrderBook[priceInWei].higherPrice = 0;\n                    token.sellOrderBook[priceInWei].lowerPrice = 0;\n                } else{\n                    token.sellOrderBook[highestSellPrice].higherPrice = priceInWei;\n                    token.sellOrderBook[priceInWei].lowerPrice = highestSellPrice;\n                    token.sellOrderBook[priceInWei].higherPrice = 0;\n                }\n\n                token.highestSellPrice = priceInWei;\n            } else if(currentSellPrice > priceInWei){\n                token.sellOrderBook[currentSellPrice].lowerPrice = priceInWei;\n                token.sellOrderBook[priceInWei].higherPrice = currentSellPrice;\n                token.sellOrderBook[priceInWei].lowerPrice = 0;\n                token.currentSellPrice = priceInWei;\n            }else{\n\n                uint sellPrice = token.currentSellPrice;\n                bool found = false;\n\n                while(sellPrice > 0 && !found){\n                    if(sellPrice<priceInWei && token.sellOrderBook[sellPrice].higherPrice > priceInWei){\n                        token.sellOrderBook[priceInWei].lowerPrice = sellPrice;\n                        token.sellOrderBook[priceInWei].higherPrice = token.sellOrderBook[sellPrice].higherPrice;\n                        token.sellOrderBook[token.sellOrderBook[sellPrice].higherPrice].lowerPrice = priceInWei;\n                        token.sellOrderBook[sellPrice].higherPrice = priceInWei;\n                        found = true;\n                    }\n                    sellPrice = token.sellOrderBook[sellPrice].higherPrice;\n                }\n            }\n        }\n    }\n    function addSellMarketOrder(Token storage token, uint priceInWei, uint amount, address seller) internal returns(uint){\n        uint whilePrice = token.currentBuyPrice;\n        uint amountNecessary = amount;\n        uint total_amount_ether_available = 0;\n        uint total_amount_ether_necessary = 0;\n        uint offers_key;\n\n        while (whilePrice >= priceInWei && amountNecessary > 0) {//we start with the highest buy price.\n            offers_key = token.buyOrderBook[whilePrice].offers_key;\n            while (offers_key <= token.buyOrderBook[whilePrice].offers_length && amountNecessary > 0) {//and the first order (FIFO)\n                uint volumeAtPriceFromAddress = token.buyOrderBook[whilePrice].offers[offers_key].amount;\n\n                if (volumeAtPriceFromAddress <= amountNecessary) {\n                    total_amount_ether_available = volumeAtPriceFromAddress * whilePrice;\n\n                    require(tokenBalanceForAddress[seller][token.contractAddress] >= volumeAtPriceFromAddress);\n                    tokenBalanceForAddress[seller][token.contractAddress] -= volumeAtPriceFromAddress;\n\n                    require(tokenBalanceForAddress[seller][token.contractAddress] - volumeAtPriceFromAddress >= 0);\n                    require(tokenBalanceForAddress[token.buyOrderBook[whilePrice].offers[offers_key].who][token.contractAddress] + volumeAtPriceFromAddress >= tokenBalanceForAddress[token.buyOrderBook[whilePrice].offers[offers_key].who][token.contractAddress]);\n                    require(etherBalanceForAddress[seller] + total_amount_ether_available >= etherBalanceForAddress[seller]);\n\n                    tokenBalanceForAddress[token.buyOrderBook[whilePrice].offers[offers_key].who][token.contractAddress] += volumeAtPriceFromAddress;\n                    tokens[token.contractAddress].buyOrderBook[whilePrice].offers[offers_key].amount = 0;\n                    etherBalanceForAddress[seller] += total_amount_ether_available;\n                    token.buyOrderBook[whilePrice].offers_key++;\n                \n                    emit BuyLimitOrderFilled(token.contractAddress, volumeAtPriceFromAddress, whilePrice, block.timestamp, offers_key);\n                    \n                    amountNecessary -= volumeAtPriceFromAddress;\n                }\n                else {\n                    require(volumeAtPriceFromAddress - amountNecessary > 0);\n\n                    total_amount_ether_necessary = amountNecessary * whilePrice;\n\n                    require(tokenBalanceForAddress[seller][token.contractAddress] >= amountNecessary);\n                    tokenBalanceForAddress[seller][token.contractAddress] -= amountNecessary;\n\n                    require(tokenBalanceForAddress[seller][token.contractAddress] >= amountNecessary);\n                    require(etherBalanceForAddress[seller] + total_amount_ether_necessary >= etherBalanceForAddress[msg.sender]);\n                    require(tokenBalanceForAddress[token.buyOrderBook[whilePrice].offers[offers_key].who][token.contractAddress] + amountNecessary >= tokenBalanceForAddress[token.buyOrderBook[whilePrice].offers[offers_key].who][token.contractAddress]);\n\n                    token.buyOrderBook[whilePrice].offers[offers_key].amount -= amountNecessary;\n                    etherBalanceForAddress[seller] += total_amount_ether_necessary;\n                    tokenBalanceForAddress[token.buyOrderBook[whilePrice].offers[offers_key].who][token.contractAddress] += amountNecessary;\n\n                    emit BuyLimitOrderFilled(token.contractAddress, amountNecessary, whilePrice, block.timestamp, offers_key);\n\n                    amountNecessary = 0;\n                }\n\n                if (offers_key == token.buyOrderBook[whilePrice].offers_length &&\n                    token.buyOrderBook[whilePrice].offers[offers_key].amount == 0\n                ) {\n                    token.buyOrderBookLength--;\n\n                    if (whilePrice == token.buyOrderBook[whilePrice].lowerPrice || token.buyOrderBook[whilePrice].lowerPrice == 0) {\n                        token.currentBuyPrice = 0;\n                    }\n                    else {\n                        token.currentBuyPrice = token.buyOrderBook[whilePrice].lowerPrice;\n                        token.buyOrderBook[token.buyOrderBook[whilePrice].lowerPrice].higherPrice = token.currentBuyPrice;\n                    }\n                }\n                offers_key++;\n            }\n\n            whilePrice = token.currentBuyPrice;\n        }\n\n        return amountNecessary;\n    }\n\n    function getTokenSafe(address contractAddress) internal view returns (Token storage){\n        Token storage token = tokens[contractAddress];\n        require(token.contractAddress != address(0));\n        return token;\n    }\n}",
  "sourcePath": "/Users/markomarinovic/Projects/zephyr-exchange/ethereum/contracts/Zephyr.sol",
  "compiler": {
    "name": "solc",
    "version": "0.4.24+commit.e67f0147.Emscripten.clang"
  },
  "schemaVersion": "2.0.1",
  "updatedAt": "2018-07-10T14:13:38.929Z"
}